:03000000020110EA
:0C011000787FE4F6D8FD758112020157DB
:10000300EF1FAA0670011E4A60137D01EDD3940011
:0D00130040EE7C8E7B02DBFEDCFA1D80EFF0
:0100200022BD
:10038300EF1FAC0670011E4C600F7DA77CAB7B108A
:09039300DBFEDCFADDF60080E778
:01039C00223E
:0E03D10012039D12019C1203FD12032D80F5F4
:0F03B300EF6004D2A08002C2A0A2A0B392A12248
:0F03C200EF6004D2A28002C2A2A2A2B392A32231
:0903EB00C2A0C2A1C2A2C2A32259
:04029100AD07AC0603
:100295007B0A7A00D3ED940AEC6480948040047C58
:1002A500007D0AC3EC648094805003E4FCFDEB1BE5
:1002B500AE0270011A4E6021ED1D70011CC3EC6485
:1002C500809480400A7F011203B31203C280DFC20B
:0902D500A0C2A1C2A2C2A380D5FF
:0102DE0022FD
:030402000203EB07
:0402DF00AD07AC06B5
:1002E3007B0A7A00D3ED940AEC6480948040047C0A
:1002F300007D0AC3EC648094805003E4FCFDEB1B97
:10030300AE0270011A4E6021ED1D70011CC3EC6436
:10031300809480400AE4FF1203B31203C280DFC259
:09032300A0C2A1C2A2C2A380D5B0
:01032C0022AE
:0401F300AD07AC06A2
:1001F7007B0A7A00D3ED940AEC6480948040047CF7
:10020700007D0AC3EC648094805003E4FCFDEB1B83
:10021700AE0270011A4E6022ED1D70011CC3EC6422
:10022700809480400B7F011203B31F1203C280DE4C
:0A023700C2A0C2A1C2A2C2A380D4DB
:01024100229A
:04024200AD07AC0652
:100246007B0A7A00D3ED940AEC6480948040047CA7
:10025600007D0AC3EC648094805003E4FCFDEB1B34
:10026600AE0270011A4E6022ED1D70011CC3EC64D3
:10027600809480400BE4FF1203B30F1203C280DEAA
:0A028600C2A0C2A1C2A2C2A380D48C
:01029000224B
:0903F400EF6003C29522D29522AC
:10032D008E118F12E5121512AE11700215114E605D
:10033D001A7F011203F47FC87E00120003E4FF123E
:10034D0003F47FC87E0012000380D9E4FF0203F49A
:0B03DF00020B0004020E0000010D00E4
:03002300020026B2
:10002600C0E0C083C082C0D075D000C00020980355
:10003600020105C29874082510F8A6990510E51066
:1000460064036003020105750D01E50A12035D00F4
:10005600AB3100B33200BB3300C33400CB3500D321
:100066003600DB3700E33800EB39008341008B4272
:10007600009343009B4400A346000000F3750B0069
:10008600750C008074750B00750C01806C750B0087
:10009600750C028064750B00750C03805C750B0093
:1000A600750C048054750E00750F01804C750E009A
:1000B600750F028044750E00750F03803C750E00A7
:1000C600750F048034750E00750F05802C750E00B3
:1000D600750F068024750E00750F07801C750E00BF
:1000E600750F088014750E00750F09800C750B00CE
:1000F600750C04750E00750F00751000750D00D097
:0A01060000D0D0D082D083D0E032C8
:10039D00758920758DFD758BFD759850E4F587D2A7
:0603AD008ED2ACD2AF229B
:10019C00C3E50B648094804011D3E50C9404E50B0B
:1001AC006480948050047F0180027F00EF6034E50E
:1001BC000B7033E50C14601414601814601C14607C
:1001CC0020240470217F097E000202917F097E00A9
:1001DC000202DF7F077E000202427F077E000201DF
:0701EC00F38000120402225F
:0503FD00AE0EAF0F225F
:10011C000203D1E493A3F8E493A34003F68001F225
:10012C0008DFF48029E493A3F85407240CC8C333E4
:10013C00C4540F4420C8834004F456800146F6DFB3
:10014C00E4800B01020408102040809003DFE47E61
:10015C00019360BCA3FF543F30E509541FFEE493A8
:10016C00A360010ECF54C025E060A840B8E493A36F
:10017C00FAE493A3F8E493A3C8C582C8CAC583CA9A
:10018C00F0A3C8C582C8CAC583CADFE9DEE780BE52
:0103EA000012
:10035D00D083D082F8E4937012740193700DA3A32F
:10036D0093F8740193F5828883E473740293686043
:06037D00EFA3A3A380DF43
:00000001FF
